{"abi":[{"type":"constructor","inputs":[{"name":"_dai","type":"address","internalType":"address"},{"name":"_unifactory","type":"address","internalType":"address"},{"name":"_v2Router","type":"address","internalType":"address"},{"name":"_sweepTo","type":"address","internalType":"address"}],"stateMutability":"nonpayable"},{"type":"function","name":"LiquidateDeal","inputs":[{"name":"_dealId","type":"uint256","internalType":"uint256"}],"outputs":[{"name":"s","type":"bool","internalType":"bool"}],"stateMutability":"nonpayable"},{"type":"function","name":"VestDeal","inputs":[{"name":"_dealId","type":"uint256","internalType":"uint256"}],"outputs":[{"name":"s","type":"bool","internalType":"bool"}],"stateMutability":"nonpayable"},{"type":"function","name":"approve","inputs":[{"name":"to","type":"address","internalType":"address"},{"name":"tokenId","type":"uint256","internalType":"uint256"}],"outputs":[],"stateMutability":"nonpayable"},{"type":"function","name":"balanceOf","inputs":[{"name":"owner","type":"address","internalType":"address"}],"outputs":[{"name":"","type":"uint256","internalType":"uint256"}],"stateMutability":"view"},{"type":"function","name":"createDeal","inputs":[{"name":"_projectToken","type":"address","internalType":"address"},{"name":"_giveAmountx100","type":"uint256","internalType":"uint256"},{"name":"_wantsAmountx100","type":"uint256","internalType":"uint256"},{"name":"_vestStart","type":"uint256","internalType":"uint256"},{"name":"_vestEnd","type":"uint256","internalType":"uint256"},{"name":"_pitchDataURL","type":"string","internalType":"string"}],"outputs":[{"name":"tId","type":"uint256","internalType":"uint256"}],"stateMutability":"nonpayable"},{"type":"function","name":"getApproved","inputs":[{"name":"tokenId","type":"uint256","internalType":"uint256"}],"outputs":[{"name":"","type":"address","internalType":"address"}],"stateMutability":"view"},{"type":"function","name":"getCashCowById","inputs":[{"name":"_id","type":"uint256","internalType":"uint256"}],"outputs":[{"name":"","type":"tuple","internalType":"struct CashCow.Cow","components":[{"name":"owners","type":"address[4]","internalType":"address[4]"},{"name":"amounts","type":"uint256[3]","internalType":"uint256[3]"},{"name":"vestStartEnd","type":"uint256[2]","internalType":"uint256[2]"},{"name":"data","type":"string","internalType":"string"}]}],"stateMutability":"view"},{"type":"function","name":"getK","inputs":[],"outputs":[{"name":"","type":"uint256","internalType":"uint256"}],"stateMutability":"view"},{"type":"function","name":"getVest","inputs":[{"name":"_token","type":"address","internalType":"address"},{"name":"_beneficiary","type":"address","internalType":"address"}],"outputs":[{"name":"","type":"uint256","internalType":"uint256"}],"stateMutability":"view"},{"type":"function","name":"isApprovedForAll","inputs":[{"name":"owner","type":"address","internalType":"address"},{"name":"operator","type":"address","internalType":"address"}],"outputs":[{"name":"","type":"bool","internalType":"bool"}],"stateMutability":"view"},{"type":"function","name":"milkVest","inputs":[{"name":"_dealId","type":"uint256","internalType":"uint256"}],"outputs":[{"name":"s","type":"bool","internalType":"bool"}],"stateMutability":"nonpayable"},{"type":"function","name":"name","inputs":[],"outputs":[{"name":"","type":"string","internalType":"string"}],"stateMutability":"view"},{"type":"function","name":"ownerOf","inputs":[{"name":"tokenId","type":"uint256","internalType":"uint256"}],"outputs":[{"name":"","type":"address","internalType":"address"}],"stateMutability":"view"},{"type":"function","name":"reclaimNoTakers","inputs":[{"name":"_id","type":"uint256","internalType":"uint256"}],"outputs":[{"name":"s","type":"bool","internalType":"bool"}],"stateMutability":"nonpayable"},{"type":"function","name":"safeTransferFrom","inputs":[{"name":"from","type":"address","internalType":"address"},{"name":"to","type":"address","internalType":"address"},{"name":"tokenId","type":"uint256","internalType":"uint256"}],"outputs":[],"stateMutability":"nonpayable"},{"type":"function","name":"safeTransferFrom","inputs":[{"name":"from","type":"address","internalType":"address"},{"name":"to","type":"address","internalType":"address"},{"name":"tokenId","type":"uint256","internalType":"uint256"},{"name":"_data","type":"bytes","internalType":"bytes"}],"outputs":[],"stateMutability":"nonpayable"},{"type":"function","name":"setApprovalForAll","inputs":[{"name":"operator","type":"address","internalType":"address"},{"name":"approved","type":"bool","internalType":"bool"}],"outputs":[],"stateMutability":"nonpayable"},{"type":"function","name":"supportsInterface","inputs":[{"name":"interfaceId","type":"bytes4","internalType":"bytes4"}],"outputs":[{"name":"","type":"bool","internalType":"bool"}],"stateMutability":"view"},{"type":"function","name":"sweeper","inputs":[],"outputs":[{"name":"","type":"address","internalType":"address"}],"stateMutability":"view"},{"type":"function","name":"symbol","inputs":[],"outputs":[{"name":"","type":"string","internalType":"string"}],"stateMutability":"view"},{"type":"function","name":"takeDeal","inputs":[{"name":"_dealId","type":"uint256","internalType":"uint256"}],"outputs":[{"name":"pool","type":"address","internalType":"address"}],"stateMutability":"nonpayable"},{"type":"function","name":"tempId","inputs":[],"outputs":[{"name":"","type":"uint256","internalType":"uint256"}],"stateMutability":"view"},{"type":"function","name":"tokenURI","inputs":[{"name":"_tokenId","type":"uint256","internalType":"uint256"}],"outputs":[{"name":"","type":"string","internalType":"string"}],"stateMutability":"view"},{"type":"function","name":"transferFrom","inputs":[{"name":"from","type":"address","internalType":"address"},{"name":"to","type":"address","internalType":"address"},{"name":"tokenId","type":"uint256","internalType":"uint256"}],"outputs":[],"stateMutability":"nonpayable"},{"type":"event","name":"Approval","inputs":[{"name":"owner","type":"address","indexed":true,"internalType":"address"},{"name":"approved","type":"address","indexed":true,"internalType":"address"},{"name":"tokenId","type":"uint256","indexed":true,"internalType":"uint256"}],"anonymous":false},{"type":"event","name":"ApprovalForAll","inputs":[{"name":"owner","type":"address","indexed":true,"internalType":"address"},{"name":"operator","type":"address","indexed":true,"internalType":"address"},{"name":"approved","type":"bool","indexed":false,"internalType":"bool"}],"anonymous":false},{"type":"event","name":"LiquidatedDeal","inputs":[{"name":"_dealId","type":"uint256","indexed":true,"internalType":"uint256"},{"name":"_token","type":"address","indexed":true,"internalType":"address"}],"anonymous":false},{"type":"event","name":"NewDealProposed","inputs":[{"name":"_token","type":"address","indexed":true,"internalType":"address"},{"name":"_Tempid","type":"uint256","indexed":true,"internalType":"uint256"}],"anonymous":false},{"type":"event","name":"NewVesting","inputs":[{"name":"token","type":"address","indexed":true,"internalType":"address"},{"name":"beneficiary","type":"address","indexed":true,"internalType":"address"},{"name":"amt","type":"uint256","indexed":false,"internalType":"uint256"},{"name":"bywhen","type":"uint256","indexed":false,"internalType":"uint256"}],"anonymous":false},{"type":"event","name":"RefundedNoDeal","inputs":[{"name":"_Tempid","type":"uint256","indexed":true,"internalType":"uint256"},{"name":"_token","type":"address","indexed":true,"internalType":"address"},{"name":"_caller","type":"address","indexed":false,"internalType":"address"}],"anonymous":false},{"type":"event","name":"Transfer","inputs":[{"name":"from","type":"address","indexed":true,"internalType":"address"},{"name":"to","type":"address","indexed":true,"internalType":"address"},{"name":"tokenId","type":"uint256","indexed":true,"internalType":"uint256"}],"anonymous":false},{"type":"event","name":"VestingCompleted","inputs":[{"name":"token","type":"address","indexed":true,"internalType":"address"},{"name":"beneficiary","type":"address","indexed":true,"internalType":"address"},{"name":"amt","type":"uint256","indexed":false,"internalType":"uint256"}],"anonymous":false},{"type":"event","name":"WithdrewFromVest","inputs":[{"name":"token","type":"address","indexed":true,"internalType":"address"},{"name":"beneficiary","type":"address","indexed":true,"internalType":"address"},{"name":"partialAmt","type":"uint256","indexed":false,"internalType":"uint256"}],"anonymous":false},{"type":"error","name":"TokenTransferFailed","inputs":[{"name":"_token","type":"address","internalType":"address"},{"name":"_amount","type":"uint256","internalType":"uint256"}]},{"type":"error","name":"VestingInProgress","inputs":[{"name":"","type":"address","internalType":"address"},{"name":"","type":"address","internalType":"address"}]}],"bytecode":{"object":"0x61010060405262000014600160001962000241565b60c0523480156200002457600080fd5b506040516200473e3803806200473e833981016040819052620000479162000284565b604080518082018252600e81526d10d85cda0810dbddc8145d595cdd60921b602080830191825283518085019094526004845263434f575160e01b9084015281516ec097ce7bc90715a56ae85c589c00009391620000a991600091906200019b565b508051620000bf9060019060208401906200019b565b5050600160065550608052670de0b6b3a764000060a052600880546001600160a01b038581166001600160a01b031992831617909255600a805485841690831681179091556009805493881693909216831790915560c05160405163095ea7b360e01b81526004810192909252602482015263095ea7b3906044016020604051808303816000875af11580156200015a573d6000803e3d6000fd5b505050506040513d601f19601f82011682018060405250810190620001809190620002e1565b506001600160a01b031660e05250506001600b555062000349565b828054620001a9906200030c565b90600052602060002090601f016020900481019282620001cd576000855562000218565b82601f10620001e857805160ff191683800117855562000218565b8280016001018555821562000218579182015b8281111562000218578251825591602001919060010190620001fb565b50620002269291506200022a565b5090565b5b808211156200022657600081556001016200022b565b6000828210156200026257634e487b7160e01b600052601160045260246000fd5b500390565b80516001600160a01b03811681146200027f57600080fd5b919050565b600080600080608085870312156200029b57600080fd5b620002a68562000267565b9350620002b66020860162000267565b9250620002c66040860162000267565b9150620002d66060860162000267565b905092959194509250565b600060208284031215620002f457600080fd5b815180151581146200030557600080fd5b9392505050565b600181811c908216806200032157607f821691505b602082108114156200034357634e487b7160e01b600052602260045260246000fd5b50919050565b60805160a05160c05160e051614352620003ec60003960006102e401526000818161334601526133e5015260008181612c630152612f8e0152600081816103ae01528181612c0901528181612c8701528181612d9701528181612dda01528181612e0e01528181612e3801528181612e7601528181612ead01528181612ee101528181612f12015281816131ad01528181613228015261330101526143526000f3fe608060405234801561001057600080fd5b50600436106101585760003560e01c80637b6ce466116100c3578063a6958d501161007c578063a6958d5014610321578063b88d4fde14610341578063c87b56dd14610354578063ce8f9aa614610367578063e985e9c514610370578063ee39e7a0146103ac57600080fd5b80637b6ce466146102805780638161803614610293578063863d1450146102a65780639189a59e146102df57806395d89b4114610306578063a22cb4651461030e57600080fd5b80633d538f90116101155780633d538f901461020057806342842e0e146102135780636328a7b2146102265780636352211e1461024757806370a082311461025a57806370cf9cbd1461026d57600080fd5b806301ffc9a71461015d57806306fdde0314610185578063081812fc1461019a578063095ea7b3146101c557806317349d18146101da57806323b872dd146101ed575b600080fd5b61017061016b366004613b4c565b6103d2565b60405190151581526020015b60405180910390f35b61018d610424565b60405161017c9190613bbd565b6101ad6101a8366004613bd0565b6104b6565b6040516001600160a01b03909116815260200161017c565b6101d86101d3366004613bfe565b610543565b005b6101706101e8366004613bd0565b610659565b6101d86101fb366004613c2a565b610b9d565b61017061020e366004613bd0565b610bce565b6101d8610221366004613c2a565b610d80565b610239610234366004613d0a565b610d9b565b60405190815260200161017c565b6101ad610255366004613bd0565b6110fd565b610239610268366004613d93565b611174565b61017061027b366004613bd0565b6111fa565b61017061028e366004613bd0565b6119b8565b6101ad6102a1366004613bd0565b611d01565b6102396102b4366004613db0565b6001600160a01b03918216600090815260076020908152604080832093909416825291909152205490565b6101ad7f000000000000000000000000000000000000000000000000000000000000000081565b61018d61251a565b6101d861031c366004613df7565b612529565b61033461032f366004613bd0565b612538565b60405161017c9190613e48565b6101d861034f366004613edd565b61269c565b61018d610362366004613bd0565b6126d4565b610239600b5481565b61017061037e366004613db0565b6001600160a01b03918216600090815260056020908152604080832093909416825291909152205460ff1690565b7f0000000000000000000000000000000000000000000000000000000000000000610239565b60006001600160e01b031982166380ac58cd60e01b148061040357506001600160e01b03198216635b5e139f60e01b145b8061041e57506301ffc9a760e01b6001600160e01b03198316145b92915050565b60606000805461043390613f5d565b80601f016020809104026020016040519081016040528092919081815260200182805461045f90613f5d565b80156104ac5780601f10610481576101008083540402835291602001916104ac565b820191906000526020600020905b81548152906001019060200180831161048f57829003601f168201915b5050505050905090565b60006104c182612776565b6105275760405162461bcd60e51b815260206004820152602c60248201527f4552433732313a20617070726f76656420717565727920666f72206e6f6e657860448201526b34b9ba32b73a103a37b5b2b760a11b60648201526084015b60405180910390fd5b506000908152600460205260409020546001600160a01b031690565b600061054e826110fd565b9050806001600160a01b0316836001600160a01b031614156105bc5760405162461bcd60e51b815260206004820152602160248201527f4552433732313a20617070726f76616c20746f2063757272656e74206f776e656044820152603960f91b606482015260840161051e565b336001600160a01b03821614806105d857506105d8813361037e565b61064a5760405162461bcd60e51b815260206004820152603860248201527f4552433732313a20617070726f76652063616c6c6572206973206e6f74206f7760448201527f6e6572206e6f7220617070726f76656420666f7220616c6c0000000000000000606482015260840161051e565b6106548383612793565b505050565b60008161066581612776565b61069e5760405162461bcd60e51b815260206004820152600a602482015269139bdb9948119bdd5b9960b21b604482015260640161051e565b6000818152600c60205260408082208151610100810190925281608081018260048282826020028201915b81546001600160a01b031681526001909101906020018083116106c957505050918352505060408051606081019182905260209092019190600484019060039082845b81548152602001906001019080831161070c575050509183525050604080518082019182905260209092019190600784019060029082845b815481526020019060010190808311610744575050505050815260200160098201805461077090613f5d565b80601f016020809104026020016040519081016040528092919081815260200182805461079c90613f5d565b80156107e95780601f106107be576101008083540402835291602001916107e9565b820191906000526020600020905b8154815290600101906020018083116107cc57829003601f168201915b505050919092525050815160200151919250506001600160a01b031633146108235760405162461bcd60e51b815260040161051e90613fa8565b3361082d836110fd565b6001600160a01b0316146108535760405162461bcd60e51b815260040161051e90613fa8565b6040810151514210156108945760405162461bcd60e51b81526020600482015260096024820152684e6f7420526561647960b81b604482015260640161051e565b6000848152600c60205260408082208151610100810190925281608081018260048282826020028201915b81546001600160a01b031681526001909101906020018083116108bf57505050918352505060408051606081019182905260209092019190600484019060039082845b815481526020019060010190808311610902575050509183525050604080518082019182905260209092019190600784019060029082845b81548152602001906001019080831161093a575050505050815260200160098201805461096690613f5d565b80601f016020809104026020016040519081016040528092919081815260200182805461099290613f5d565b80156109df5780601f106109b4576101008083540402835291602001916109df565b820191906000526020600020905b8154815290600101906020018083116109c257829003601f168201915b505050919092525050815160006020918201819052908301516040015192935091610a0d9150600290613ff7565b82516060015160405163a9059cbb60e01b8152336004820152602481018390529192506001600160a01b03169063a9059cbb906044016020604051808303816000875af1158015610a62573d6000803e3d6000fd5b505050506040513d601f19601f82011682018060405250810190610a86919061400b565b82516060810151905160405163a9059cbb60e01b81526001600160a01b03918216600482015260248101859052929750169063a9059cbb906044016020604051808303816000875af1158015610ae0573d6000803e3d6000fd5b505050506040513d601f19601f82011682018060405250810190610b04919061400b565b8015610b0d5750845b610b4c5760405162461bcd60e51b815260206004820152601060248201526f4661696c6564205472616e736665727360801b604482015260640161051e565b8151600260200201516001600160a01b0316867f50d2f7c6a05919492de42c71505b1f531989975b7603ec2fd800ce7daf3b801260405160405180910390a3610b9486612801565b50505050919050565b610ba733826128b0565b610bc35760405162461bcd60e51b815260040161051e90614028565b61065483838361299a565b6000818152600c60205260408082208151610100810190925282919081608081018260048282826020028201915b81546001600160a01b03168152600190910190602001808311610bfc57505050918352505060408051606081019182905260209092019190600484019060039082845b815481526020019060010190808311610c3f575050509183525050604080518082019182905260209092019190600784019060029082845b815481526020019060010190808311610c775750505050508152602001600982018054610ca390613f5d565b80601f0160208091040260200160405190810160405280929190818152602001828054610ccf90613f5d565b8015610d1c5780601f10610cf157610100808354040283529160200191610d1c565b820191906000526020600020905b815481529060010190602001808311610cff57829003601f168201915b505050919092525050815160400151919250610d39919050612b47565b9150818015610d6c575080516040908101516001600160a01b031660009081526007602090815282822033835290522054155b15610d7a57610d7a83612801565b50919050565b6106548383836040518060200160405280600081525061269c565b60006001600160a01b038716610de35760405162461bcd60e51b815260206004820152600d60248201526c546f6b656e206973207a65726f60981b604482015260640161051e565b604082511115610e245760405162461bcd60e51b815260206004820152600c60248201526b55524c20746f6f206c6f6e6760a01b604482015260640161051e565b610e2e8385614079565b610e735760405162461bcd60e51b815260206004820152601660248201527556657374696e6720706572696f64206973207a65726f60501b604482015260640161051e565b60008385610e818989614079565b610e8b9190614079565b610e959190614079565b11610ed85760405162461bcd60e51b81526020600482015260136024820152720c081d985b1d59481b9bdd08185b1b1bddd959606a1b604482015260640161051e565b6001600160a01b0387166323b872dd3330610efa8a662386f26fc10000614079565b6040516001600160e01b031960e086901b1681526001600160a01b03938416600482015292909116602483015260448201526064016020604051808303816000875af1158015610f4e573d6000803e3d6000fd5b505050506040513d601f19601f82011682018060405250810190610f72919061400b565b156110b85760408051610100810182523360808201908152600060a083018190526001600160a01b038b1660c084015260e0830152815281516060810190925290602082019080610fca8a662386f26fc10000614079565b8152602001610fe089662386f26fc10000614079565b81526000602091820181905291835260408051808201825289815280830189905284830152928301869052600b548252600c9052208151611024908290600461392a565b50602082015161103a9060048301906003613982565b50604082015161105090600783019060026139b0565b506060820151805161106c9160098401916020909101906139dd565b5050600b8054600181019091556040519092508291506001600160a01b038916907f7048e905618a753879877f7b5023594d41b6e011abfd2322a7ba94752e99dfe390600090a36110f3565b866110ca87662386f26fc10000614079565b6040516249dd1360e61b81526001600160a01b039092166004830152602482015260440161051e565b9695505050505050565b6000818152600260205260408120546001600160a01b03168061041e5760405162461bcd60e51b815260206004820152602960248201527f4552433732313a206f776e657220717565727920666f72206e6f6e657869737460448201526832b73a103a37b5b2b760b91b606482015260840161051e565b60006001600160a01b0382166111de5760405162461bcd60e51b815260206004820152602960248201527f4552433732313a2061646472657373207a65726f206973206e6f7420612076616044820152683634b21037bbb732b960b91b606482015260840161051e565b506001600160a01b031660009081526003602052604090205490565b60008161120681612776565b61123f5760405162461bcd60e51b815260206004820152600a602482015269139bdb9948119bdd5b9960b21b604482015260640161051e565b6000818152600c60205260408082208151610100810190925281608081018260048282826020028201915b81546001600160a01b0316815260019091019060200180831161126a57505050918352505060408051606081019182905260209092019190600484019060039082845b8154815260200190600101908083116112ad575050509183525050604080518082019182905260209092019190600784019060029082845b8154815260200190600101908083116112e5575050505050815260200160098201805461131190613f5d565b80601f016020809104026020016040519081016040528092919081815260200182805461133d90613f5d565b801561138a5780601f1061135f5761010080835404028352916020019161138a565b820191906000526020600020905b81548152906001019060200180831161136d57829003601f168201915b505050919092525050815160200151919250506001600160a01b031633146113c45760405162461bcd60e51b815260040161051e90613fa8565b336113ce836110fd565b6001600160a01b0316146113f45760405162461bcd60e51b815260040161051e90613fa8565b6040810151514210156114355760405162461bcd60e51b81526020600482015260096024820152684e6f7420526561647960b81b604482015260640161051e565b6000848152600c60205260408082208151610100810190925281608081018260048282826020028201915b81546001600160a01b0316815260019091019060200180831161146057505050918352505060408051606081019182905260209092019190600484019060039082845b8154815260200190600101908083116114a3575050509183525050604080518082019182905260209092019190600784019060029082845b8154815260200190600101908083116114db575050505050815260200160098201805461150790613f5d565b80601f016020809104026020016040519081016040528092919081815260200182805461153390613f5d565b80156115805780601f1061155557610100808354040283529160200191611580565b820191906000526020600020905b81548152906001019060200180831161156357829003601f168201915b505050919092525050600a5482516040908101516009546020860151909201519495506000948594506001600160a01b039384169363baa2abde9316906115c990600290613ff7565b6040516001600160e01b031960e086901b1681526001600160a01b039384166004820152929091166024830152604482015260016064820181905260848201523060a48201524260c482015260e40160408051808303816000875af1158015611636573d6000803e3d6000fd5b505050506040513d601f19601f8201168201806040525081019061165a9190614098565b60408051600280825260608201835293955091935060009290602083019080368337505060095482519293506001600160a01b0316918391506000906116a2576116a2613f92565b6001600160a01b0390921660209283029190910190910152835160026020020151816001815181106116d6576116d6613f92565b6001600160a01b039283166020918202929092010152600a546009546040516370a0823160e01b8152306004820152600093928316926338ed17399216906370a0823190602401602060405180830381865afa15801561173a573d6000803e3d6000fd5b505050506040513d601f19601f8201168201806040525081019061175e91906140bc565b6001853061176e426103e86140d5565b6040518663ffffffff1660e01b815260040161178e9594939291906140ed565b6000604051808303816000875af11580156117ad573d6000803e3d6000fd5b505050506040513d6000823e601f3d908101601f191682016040526117d5919081019061415e565b9050806001815181106117ea576117ea613f92565b6020026020010151846117fd91906140d5565b6009546040516370a0823160e01b81523060048201529195506001600160a01b0316906370a0823190602401602060405180830381865afa158015611846573d6000803e3d6000fd5b505050506040513d601f19601f8201168201806040525081019061186a91906140bc565b156118a75760405162461bcd60e51b815260206004820152600d60248201526c444149206e6f7420656d70747960981b604482015260640161051e565b60408501516020015160009042116118ec5760408601516020015162015180906118d2904290614204565b6118dc9190613ff7565b6118e79060016140d5565b6118ef565b60015b60408051606081018252878152600060208083018290528284018290528e8252600c90529190912091925061192991600401906003613982565b508551604001516119449061193d8c6110fd565b87846130b0565b5085516040908101516001600160a01b03166000908152600760209081528282203383529052205485109850886119ab5760405162461bcd60e51b815260206004820152600b60248201526a15995cdd0819985a5b195960aa1b604482015260640161051e565b5050505050505050919050565b6000818152600c60205260408082208151610100810190925282919081608081018260048282826020028201915b81546001600160a01b031681526001909101906020018083116119e657505050918352505060408051606081019182905260209092019190600484019060039082845b815481526020019060010190808311611a29575050509183525050604080518082019182905260209092019190600784019060029082845b815481526020019060010190808311611a615750505050508152602001600982018054611a8d90613f5d565b80601f0160208091040260200160405190810160405280929190818152602001828054611ab990613f5d565b8015611b065780601f10611adb57610100808354040283529160200191611b06565b820191906000526020600020905b815481529060010190602001808311611ae957829003601f168201915b505050919092525050815151919250506001600160a01b031633148015611b3957508051602001516001600160a01b0316155b611b775760405162461bcd60e51b815260206004820152600f60248201526e10dbddc8125b9d195c9c9d5c1d1959608a1b604482015260640161051e565b6000838152600c60205260408120818155600181018290556002810182905560038101829055906000600483018190556005830181905560068301556000600783018190556008830155611bcf600983016000613a50565b50508051600260200201516001600160a01b031663a9059cbb338360200151600060038110611c0057611c00613f92565b60200201516040516001600160e01b031960e085901b1681526001600160a01b03909216600483015260248201526044016020604051808303816000875af1158015611c50573d6000803e3d6000fd5b505050506040513d601f19601f82011682018060405250810190611c74919061400b565b915081611cb35760405162461bcd60e51b815260206004820152600d60248201526c1499599d5b990811985a5b1959609a1b604482015260640161051e565b805160409081015190513381526001600160a01b039091169084907fa31d86df2adf6d210a4505254949d1a35b70bcfb17d10f77a7a5a3397e20580a9060200160405180910390a350919050565b6000818152600c60205260408082208151610100810190925282919081608081018260048282826020028201915b81546001600160a01b03168152600190910190602001808311611d2f57505050918352505060408051606081019182905260209092019190600484019060039082845b815481526020019060010190808311611d72575050509183525050604080518082019182905260209092019190600784019060029082845b815481526020019060010190808311611daa5750505050508152602001600982018054611dd690613f5d565b80601f0160208091040260200160405190810160405280929190818152602001828054611e0290613f5d565b8015611e4f5780601f10611e2457610100808354040283529160200191611e4f565b820191906000526020600020905b815481529060010190602001808311611e3257829003601f168201915b505050919092525050815160200151919250506001600160a01b031615611ead5760405162461bcd60e51b81526020600482015260126024820152712232b0b61030b63932b0b23c903a30b5b2b760711b604482015260640161051e565b8051516001600160a01b0316611ef65760405162461bcd60e51b815260206004820152600e60248201526d1119585b081b9bdd08199bdd5b9960921b604482015260640161051e565b6020818101510151600954604051636eb1769f60e11b81523360048201523060248201526001600160a01b039091169063dd62ed3e90604401602060405180830381865afa158015611f4c573d6000803e3d6000fd5b505050506040513d601f19601f82011682018060405250810190611f7091906140bc565b1015611faf5760405162461bcd60e51b815260206004820152600e60248201526d4e6f7420656e6f7567682044414960901b604482015260640161051e565b60095460208281015101516040516323b872dd60e01b815233600482015230602482015260448101919091526001600160a01b03909116906323b872dd906064016020604051808303816000875af115801561200f573d6000803e3d6000fd5b505050506040513d601f19601f82011682018060405250810190612033919061400b565b6120775760405162461bcd60e51b8152602060048201526015602482015274151bdad95b881d1c985b9cd9995c8819985a5b1959605a1b604482015260640161051e565b8051336020909101526008548151604090810151600954915163e6a4390560e01b81526001600160a01b0391821660048201529181166024830152600092169063e6a4390590604401602060405180830381865afa1580156120dd573d6000803e3d6000fd5b505050506040513d601f19601f82011682018060405250810190612101919061421b565b92506001600160a01b03831615612181576040516370a0823160e01b81523060048201526001600160a01b038416906370a0823190602401602060405180830381865afa158015612156573d6000803e3d6000fd5b505050506040513d601f19601f8201168201806040525081019061217a91906140bc565b9050612227565b600854825160409081015160095491516364e329cb60e11b81526001600160a01b03918216600482015291811660248301529091169063c9c65396906044016020604051808303816000875af11580156121df573d6000803e3d6000fd5b505050506040513d601f19601f82011682018060405250810190612203919061421b565b600a54835160400151919450612225916001600160a01b039091169085613324565b505b81516001600160a01b03848116606092830152600a5484516040908101516009546020808901518051910151845162e8e33760e81b8152938716600485015291861660248401526044830181905260648301829052608483015260a48201523060c48201524260e48201529051919092169263e8e3370092610104808201939182900301816000875af11580156122c2573d6000803e3d6000fd5b505050506040513d601f19601f820116820180604052508101906122e69190614238565b5050506040820151516000906122ff9062015180614079565b61230990426140d5565b90506040518060400160405280828152602001846040015160016002811061233357612333613f92565b60200201516123459062015180614079565b61234f90846140d5565b9052604084015281156123d5576040516370a0823160e01b815230600482015282906001600160a01b038616906370a0823190602401602060405180830381865afa1580156123a2573d6000803e3d6000fd5b505050506040513d601f19601f820116820180604052508101906123c691906140bc565b6123d09190614204565b61243d565b6040516370a0823160e01b81523060048201526001600160a01b038516906370a0823190602401602060405180830381865afa158015612419573d6000803e3d6000fd5b505050506040513d601f19601f8201168201806040525081019061243d91906140bc565b60208481015160400191909152835101516124589086613459565b6124668584606001516135a0565b6124a65760405162461bcd60e51b81526020600482015260116024820152704661696c656420746f207365742055524960781b604482015260640161051e565b6000858152600c6020526040902083518491906124c6908290600461392a565b5060208201516124dc9060048301906003613982565b5060408201516124f290600783019060026139b0565b506060820151805161250e9160098401916020909101906139dd565b50905050505050919050565b60606001805461043390613f5d565b612534338383613617565b5050565b612540613a8d565b6000828152600c6020526040908190208151610100810190925281608081018260048282826020028201915b81546001600160a01b0316815260019091019060200180831161256c57505050918352505060408051606081019182905260209092019190600484019060039082845b8154815260200190600101908083116125af575050509183525050604080518082019182905260209092019190600784019060029082845b8154815260200190600101908083116125e7575050505050815260200160098201805461261390613f5d565b80601f016020809104026020016040519081016040528092919081815260200182805461263f90613f5d565b801561268c5780601f106126615761010080835404028352916020019161268c565b820191906000526020600020905b81548152906001019060200180831161266f57829003601f168201915b5050505050815250509050919050565b6126a633836128b0565b6126c25760405162461bcd60e51b815260040161051e90614028565b6126ce848484846136e6565b50505050565b6000818152600d602052604090208054606091906126f190613f5d565b80601f016020809104026020016040519081016040528092919081815260200182805461271d90613f5d565b801561276a5780601f1061273f5761010080835404028352916020019161276a565b820191906000526020600020905b81548152906001019060200180831161274d57829003601f168201915b50505050509050919050565b6000908152600260205260409020546001600160a01b0316151590565b600081815260046020526040902080546001600160a01b0319166001600160a01b03841690811790915581906127c8826110fd565b6001600160a01b03167f8c5be1e5ebec7d5bd14f71427d1e84f3dd0314c0f7b2291e5b200ac8c7c3b92560405160405180910390a45050565b600061280c826110fd565b905061281a81600084613719565b612825600083612793565b6001600160a01b038116600090815260036020526040812080546001929061284e908490614204565b909155505060008281526002602052604080822080546001600160a01b0319169055518391906001600160a01b038416907fddf252ad1be2c89b69c2b068fc378daa952ba7f163c4a11628f55a4df523b3ef908390a461253481600084613785565b60006128bb82612776565b61291c5760405162461bcd60e51b815260206004820152602c60248201527f4552433732313a206f70657261746f7220717565727920666f72206e6f6e657860448201526b34b9ba32b73a103a37b5b2b760a11b606482015260840161051e565b6000612927836110fd565b9050806001600160a01b0316846001600160a01b0316148061296e57506001600160a01b0380821660009081526005602090815260408083209388168352929052205460ff165b806129925750836001600160a01b0316612987846104b6565b6001600160a01b0316145b949350505050565b826001600160a01b03166129ad826110fd565b6001600160a01b031614612a115760405162461bcd60e51b815260206004820152602560248201527f4552433732313a207472616e736665722066726f6d20696e636f72726563742060448201526437bbb732b960d91b606482015260840161051e565b6001600160a01b038216612a735760405162461bcd60e51b8152602060048201526024808201527f4552433732313a207472616e7366657220746f20746865207a65726f206164646044820152637265737360e01b606482015260840161051e565b612a7e838383613719565b612a89600082612793565b6001600160a01b0383166000908152600360205260408120805460019290612ab2908490614204565b90915550506001600160a01b0382166000908152600360205260408120805460019290612ae09084906140d5565b909155505060008181526002602052604080822080546001600160a01b0319166001600160a01b0386811691821790925591518493918716917fddf252ad1be2c89b69c2b068fc378daa952ba7f163c4a11628f55a4df523b3ef91a4610654838383613785565b600060026006541415612b9c5760405162461bcd60e51b815260206004820152601f60248201527f5265656e7472616e637947756172643a207265656e7472616e742063616c6c00604482015260640161051e565b60026006556001600160a01b038216600090815260076020908152604080832033845290915290205480612c035760405162461bcd60e51b815260206004820152600e60248201526d4e6f7468696e6720746f2062616760901b604482015260640161051e565b42612c2e7f000000000000000000000000000000000000000000000000000000000000000083614266565b1015612dd2576001600160a01b038316600081815260076020908152604080832033808552925282209190915563a9059cbb907f0000000000000000000000000000000000000000000000000000000000000000612cac7f000000000000000000000000000000000000000000000000000000000000000086613ff7565b612cb69190614079565b6040516001600160e01b031960e085901b1681526001600160a01b03909216600483015260248201526044016020604051808303816000875af1158015612d01573d6000803e3d6000fd5b505050506040513d601f19601f82011682018060405250810190612d25919061400b565b915081612d665760405162461bcd60e51b815260206004820152600f60248201526e151c985b9cd9995c8819985a5b1959608a1b604482015260640161051e565b336001600160a01b0384167fe9805102aaf0cc4b631dc2f6e4cc21ace17cd2f30daeda7d19e790e2b2df3db2612dbc7f000000000000000000000000000000000000000000000000000000000000000085613ff7565b60405190815260200160405180910390a36130a5565b600042612dff7f000000000000000000000000000000000000000000000000000000000000000084614266565b612e099190614204565b612e337f000000000000000000000000000000000000000000000000000000000000000084614266565b612e5d7f000000000000000000000000000000000000000000000000000000000000000085613ff7565b612e679190613ff7565b612e719190614079565b612e9b7f000000000000000000000000000000000000000000000000000000000000000084613ff7565b612ea59190614204565b905042612ed27f000000000000000000000000000000000000000000000000000000000000000084614266565b612edc9190614204565b612f067f000000000000000000000000000000000000000000000000000000000000000084614266565b612f109190614204565b7f000000000000000000000000000000000000000000000000000000000000000082612f3c8286613ff7565b612f469190614204565b612f509190614079565b612f5a91906140d5565b6001600160a01b0385166000818152600760209081526040808320338085529252909120929092559063a9059cbb90612fb37f000000000000000000000000000000000000000000000000000000000000000085614079565b6040516001600160e01b031960e085901b1681526001600160a01b03909216600483015260248201526044016020604051808303816000875af1158015612ffe573d6000803e3d6000fd5b505050506040513d601f19601f82011682018060405250810190613022919061400b565b9250826130635760405162461bcd60e51b815260206004820152600f60248201526e151c985b9cd9995c8819985a5b1959608a1b604482015260640161051e565b60405181815233906001600160a01b038616907fe61b5f97963031164169969023dd171723b55b0fc51f6318a018a1011d333dcc9060200160405180910390a3505b506001600655919050565b6001600160a01b0380851660009081526007602090815260408083209387168352929052908120541561310957604051635d30697d60e01b81526001600160a01b0380871660048301528516602482015260440161051e565b60016131158385614079565b116131625760405162461bcd60e51b815260206004820152601d60248201527f416d6f756e74206d7573742062652067726561746572207468616e2030000000604482015260640161051e565b6001600160a01b0384166131ab5760405162461bcd60e51b815260206004820152601060248201526f042656e656669636961727920697320360841b604482015260640161051e565b7f0000000000000000000000000000000000000000000000000000000000000000831061320e5760405162461bcd60e51b81526020600482015260116024820152704d617820616d6f756e74206973206b2d3160781b604482015260640161051e565b4261321c8362015180614079565b61322691906140d5565b7f0000000000000000000000000000000000000000000000000000000000000000613259670de0b6b3a764000086613ff7565b6132639190614079565b61326d91906140d5565b6001600160a01b038681166000818152600760209081526040808320948a1680845294825291829020949094558051878152938401869052919290917f3d9afabb0107756d8454b2b6cc49f5c5dc85643dfa276f6040a4a26add55881d910160405180910390a35050506001600160a01b0391821660009081526007602090815260408083209390941682529190915220547f00000000000000000000000000000000000000000000000000000000000000001090565b600a5460405163095ea7b360e01b81526001600160a01b0391821660048201527f0000000000000000000000000000000000000000000000000000000000000000602482015260009184169063095ea7b3906044016020604051808303816000875af1158015613398573d6000803e3d6000fd5b505050506040513d601f19601f820116820180604052508101906133bc919061400b565b80156129925750600a5460405163095ea7b360e01b81526001600160a01b0391821660048201527f000000000000000000000000000000000000000000000000000000000000000060248201529083169063095ea7b3906044016020604051808303816000875af1158015613435573d6000803e3d6000fd5b505050506040513d601f19601f82011682018060405250810190612992919061400b565b6001600160a01b0382166134af5760405162461bcd60e51b815260206004820181905260248201527f4552433732313a206d696e7420746f20746865207a65726f2061646472657373604482015260640161051e565b6134b881612776565b156135055760405162461bcd60e51b815260206004820152601c60248201527f4552433732313a20746f6b656e20616c7265616479206d696e74656400000000604482015260640161051e565b61351160008383613719565b6001600160a01b038216600090815260036020526040812080546001929061353a9084906140d5565b909155505060008181526002602052604080822080546001600160a01b0319166001600160a01b03861690811790915590518392907fddf252ad1be2c89b69c2b068fc378daa952ba7f163c4a11628f55a4df523b3ef908290a461253460008383613785565b60006135ab83612776565b6135ee5760405162461bcd60e51b8152602060048201526014602482015273151bdad95b88191bd95cc81b9bdd08195e1a5cdd60621b604482015260640161051e565b6000838152600d60209081526040909120835161360d928501906139dd565b5060019392505050565b816001600160a01b0316836001600160a01b031614156136795760405162461bcd60e51b815260206004820152601960248201527f4552433732313a20617070726f766520746f2063616c6c657200000000000000604482015260640161051e565b6001600160a01b03838116600081815260056020908152604080832094871680845294825291829020805460ff191686151590811790915591519182527f17307eab39ab6107e8899845ad3d59bd9653f200f220920489ca2b5937696c31910160405180910390a3505050565b6136f184848461299a565b6136fd8484848461382c565b6126ce5760405162461bcd60e51b815260040161051e9061427a565b6001600160a01b03831615610654576000818152600c60205260409020600101546001600160a01b038481169116146106545760405162461bcd60e51b815260206004820152600e60248201526d2737ba103cb7bab9103a37b5b2b760911b604482015260640161051e565b6001600160a01b038316156137bf576000818152600c6020526040902060010180546001600160a01b0319166001600160a01b0384161790555b6001600160a01b038216610654576000818152600c60205260408120818155600181018290556002810182905560038101829055906000600483018190556005830181905560068301556000600783018190556008830155613825600983016000613a50565b5050505050565b60006001600160a01b0384163b1561391f57604051630a85bd0160e11b81526001600160a01b0385169063150b7a02906138709033908990889088906004016142cc565b6020604051808303816000875af19250505080156138ab575060408051601f3d908101601f191682019092526138a8918101906142ff565b60015b613905573d8080156138d9576040519150601f19603f3d011682016040523d82523d6000602084013e6138de565b606091505b5080516138fd5760405162461bcd60e51b815260040161051e9061427a565b805181602001fd5b6001600160e01b031916630a85bd0160e11b149050612992565b506001949350505050565b8260048101928215613972579160200282015b8281111561397257825182546001600160a01b0319166001600160a01b0390911617825560209092019160019091019061393d565b5061397e929150613ac7565b5090565b8260038101928215613972579160200282015b82811115613972578251825591602001919060010190613995565b82600281019282156139725791602002820182811115613972578251825591602001919060010190613995565b8280546139e990613f5d565b90600052602060002090601f016020900481019282613a0b5760008555613972565b82601f10613a2457805160ff1916838001178555613972565b828001600101855582156139725791820182811115613972578251825591602001919060010190613995565b508054613a5c90613f5d565b6000825580601f10613a6c575050565b601f016020900490600052602060002090810190613a8a9190613ac7565b50565b6040518060800160405280613aa0613adc565b8152602001613aad613afa565b8152602001613aba613b18565b8152602001606081525090565b5b8082111561397e5760008155600101613ac8565b60405180608001604052806004906020820280368337509192915050565b60405180606001604052806003906020820280368337509192915050565b60405180604001604052806002906020820280368337509192915050565b6001600160e01b031981168114613a8a57600080fd5b600060208284031215613b5e57600080fd5b8135613b6981613b36565b9392505050565b6000815180845260005b81811015613b9657602081850181015186830182015201613b7a565b81811115613ba8576000602083870101525b50601f01601f19169290920160200192915050565b602081526000613b696020830184613b70565b600060208284031215613be257600080fd5b5035919050565b6001600160a01b0381168114613a8a57600080fd5b60008060408385031215613c1157600080fd5b8235613c1c81613be9565b946020939093013593505050565b600080600060608486031215613c3f57600080fd5b8335613c4a81613be9565b92506020840135613c5a81613be9565b929592945050506040919091013590565b634e487b7160e01b600052604160045260246000fd5b604051601f8201601f1916810167ffffffffffffffff81118282101715613caa57613caa613c6b565b604052919050565b600067ffffffffffffffff831115613ccc57613ccc613c6b565b613cdf601f8401601f1916602001613c81565b9050828152838383011115613cf357600080fd5b828260208301376000602084830101529392505050565b60008060008060008060c08789031215613d2357600080fd5b8635613d2e81613be9565b95506020870135945060408701359350606087013592506080870135915060a087013567ffffffffffffffff811115613d6657600080fd5b8701601f81018913613d7757600080fd5b613d8689823560208401613cb2565b9150509295509295509295565b600060208284031215613da557600080fd5b8135613b6981613be9565b60008060408385031215613dc357600080fd5b8235613dce81613be9565b91506020830135613dde81613be9565b809150509250929050565b8015158114613a8a57600080fd5b60008060408385031215613e0a57600080fd5b8235613e1581613be9565b91506020830135613dde81613de9565b8060005b60028110156126ce578151845260209384019390910190600101613e29565b6020808252825160009190828483015b6004821015613e805782516001600160a01b0316815291830191600191909101908301613e58565b5050508084015160a0840160005b6003811015613eab57825182529183019190830190600101613e8e565b505050506040830151613ec2610100840182613e25565b50606083015161014083810152612992610160840182613b70565b60008060008060808587031215613ef357600080fd5b8435613efe81613be9565b93506020850135613f0e81613be9565b925060408501359150606085013567ffffffffffffffff811115613f3157600080fd5b8501601f81018713613f4257600080fd5b613f5187823560208401613cb2565b91505092959194509250565b600181811c90821680613f7157607f821691505b60208210811415610d7a57634e487b7160e01b600052602260045260246000fd5b634e487b7160e01b600052603260045260246000fd5b6020808252600990820152682737ba1027bbb732b960b91b604082015260600190565b634e487b7160e01b600052601260045260246000fd5b634e487b7160e01b600052601160045260246000fd5b60008261400657614006613fcb565b500490565b60006020828403121561401d57600080fd5b8151613b6981613de9565b60208082526031908201527f4552433732313a207472616e736665722063616c6c6572206973206e6f74206f6040820152701ddb995c881b9bdc88185c1c1c9bdd9959607a1b606082015260800190565b600081600019048311821515161561409357614093613fe1565b500290565b600080604083850312156140ab57600080fd5b505080516020909101519092909150565b6000602082840312156140ce57600080fd5b5051919050565b600082198211156140e8576140e8613fe1565b500190565b600060a082018783526020878185015260a0604085015281875180845260c086019150828901935060005b8181101561413d5784516001600160a01b031683529383019391830191600101614118565b50506001600160a01b03969096166060850152505050608001529392505050565b6000602080838503121561417157600080fd5b825167ffffffffffffffff8082111561418957600080fd5b818501915085601f83011261419d57600080fd5b8151818111156141af576141af613c6b565b8060051b91506141c0848301613c81565b81815291830184019184810190888411156141da57600080fd5b938501935b838510156141f8578451825293850193908501906141df565b98975050505050505050565b60008282101561421657614216613fe1565b500390565b60006020828403121561422d57600080fd5b8151613b6981613be9565b60008060006060848603121561424d57600080fd5b8351925060208401519150604084015190509250925092565b60008261427557614275613fcb565b500690565b60208082526032908201527f4552433732313a207472616e7366657220746f206e6f6e20455243373231526560408201527131b2b4bb32b91034b6b83632b6b2b73a32b960711b606082015260800190565b6001600160a01b03858116825284166020820152604081018390526080606082018190526000906110f390830184613b70565b60006020828403121561431157600080fd5b8151613b6981613b3656fea2646970667358221220015aebf6bc7ffe7842a75494a301d15cf56429c302598e240e2bb80849190f6b64736f6c634300080b0033","linkReferences":{}},"methodIdentifiers":{"LiquidateDeal(uint256)":"17349d18","VestDeal(uint256)":"70cf9cbd","approve(address,uint256)":"095ea7b3","balanceOf(address)":"70a08231","createDeal(address,uint256,uint256,uint256,uint256,string)":"6328a7b2","getApproved(uint256)":"081812fc","getCashCowById(uint256)":"a6958d50","getK()":"ee39e7a0","getVest(address,address)":"863d1450","isApprovedForAll(address,address)":"e985e9c5","milkVest(uint256)":"3d538f90","name()":"06fdde03","ownerOf(uint256)":"6352211e","reclaimNoTakers(uint256)":"7b6ce466","safeTransferFrom(address,address,uint256)":"42842e0e","safeTransferFrom(address,address,uint256,bytes)":"b88d4fde","setApprovalForAll(address,bool)":"a22cb465","supportsInterface(bytes4)":"01ffc9a7","sweeper()":"9189a59e","symbol()":"95d89b41","takeDeal(uint256)":"81618036","tempId()":"ce8f9aa6","tokenURI(uint256)":"c87b56dd","transferFrom(address,address,uint256)":"23b872dd"},"id":41}