{"abi":[{"type":"constructor","inputs":[{"name":"_k","type":"uint256","internalType":"uint256"}],"stateMutability":"nonpayable"},{"type":"function","name":"getVest","inputs":[{"name":"_token","type":"address","internalType":"address"},{"name":"_beneficiary","type":"address","internalType":"address"}],"outputs":[{"name":"","type":"uint256","internalType":"uint256"}],"stateMutability":"view"},{"type":"event","name":"NewVesting","inputs":[{"name":"token","type":"address","indexed":true,"internalType":"address"},{"name":"beneficiary","type":"address","indexed":true,"internalType":"address"},{"name":"amt","type":"uint256","indexed":false,"internalType":"uint256"},{"name":"bywhen","type":"uint256","indexed":false,"internalType":"uint256"}],"anonymous":false},{"type":"event","name":"VestingCompleted","inputs":[{"name":"token","type":"address","indexed":true,"internalType":"address"},{"name":"beneficiary","type":"address","indexed":true,"internalType":"address"},{"name":"amt","type":"uint256","indexed":false,"internalType":"uint256"}],"anonymous":false},{"type":"event","name":"WithdrewFromVest","inputs":[{"name":"token","type":"address","indexed":true,"internalType":"address"},{"name":"beneficiary","type":"address","indexed":true,"internalType":"address"},{"name":"partialAmt","type":"uint256","indexed":false,"internalType":"uint256"}],"anonymous":false},{"type":"error","name":"VestingInProgress","inputs":[{"name":"","type":"address","internalType":"address"},{"name":"","type":"address","internalType":"address"}]}],"bytecode":{"object":"0x60c060405234801561001057600080fd5b5060405161017238038061017283398101604081905261002f91610048565b6001600055608052670de0b6b3a764000060a052610061565b60006020828403121561005a57600080fd5b5051919050565b60805160a05160f461007e600039600050506000505060f46000f3fe6080604052348015600f57600080fd5b506004361060285760003560e01c8063863d145014602d575b600080fd5b606360383660046090565b6001600160a01b03918216600090815260016020908152604080832093909416825291909152205490565b60405190815260200160405180910390f35b80356001600160a01b0381168114608b57600080fd5b919050565b6000806040838503121560a257600080fd5b60a9836075565b915060b5602084016075565b9050925092905056fea26469706673582212201c43b7b821f127c9dd259c87a8382dc10d7a4b99061c0292882f23001a9861a564736f6c634300080b0033","linkReferences":{}},"methodIdentifiers":{"getVest(address,address)":"863d1450"},"id":39}