{"abi":[{"type":"constructor","inputs":[],"stateMutability":"nonpayable"},{"type":"function","name":"allowance","inputs":[{"name":"owner","type":"address","internalType":"address"},{"name":"spender","type":"address","internalType":"address"}],"outputs":[{"name":"","type":"uint256","internalType":"uint256"}],"stateMutability":"view"},{"type":"function","name":"approve","inputs":[{"name":"spender","type":"address","internalType":"address"},{"name":"amount","type":"uint256","internalType":"uint256"}],"outputs":[{"name":"","type":"bool","internalType":"bool"}],"stateMutability":"nonpayable"},{"type":"function","name":"balanceOf","inputs":[{"name":"account","type":"address","internalType":"address"}],"outputs":[{"name":"","type":"uint256","internalType":"uint256"}],"stateMutability":"view"},{"type":"function","name":"changeOwner","inputs":[{"name":"_nextOwner","type":"address","internalType":"address"}],"outputs":[{"name":"","type":"address","internalType":"address"}],"stateMutability":"nonpayable"},{"type":"function","name":"decimals","inputs":[],"outputs":[{"name":"","type":"uint8","internalType":"uint8"}],"stateMutability":"view"},{"type":"function","name":"decreaseAllowance","inputs":[{"name":"spender","type":"address","internalType":"address"},{"name":"subtractedValue","type":"uint256","internalType":"uint256"}],"outputs":[{"name":"","type":"bool","internalType":"bool"}],"stateMutability":"nonpayable"},{"type":"function","name":"increaseAllowance","inputs":[{"name":"spender","type":"address","internalType":"address"},{"name":"addedValue","type":"uint256","internalType":"uint256"}],"outputs":[{"name":"","type":"bool","internalType":"bool"}],"stateMutability":"nonpayable"},{"type":"function","name":"mint","inputs":[{"name":"_to","type":"address","internalType":"address"},{"name":"_amount","type":"uint256","internalType":"uint256"}],"outputs":[{"name":"b0","type":"uint256","internalType":"uint256"}],"stateMutability":"nonpayable"},{"type":"function","name":"name","inputs":[],"outputs":[{"name":"","type":"string","internalType":"string"}],"stateMutability":"view"},{"type":"function","name":"symbol","inputs":[],"outputs":[{"name":"","type":"string","internalType":"string"}],"stateMutability":"view"},{"type":"function","name":"totalSupply","inputs":[],"outputs":[{"name":"","type":"uint256","internalType":"uint256"}],"stateMutability":"view"},{"type":"function","name":"transfer","inputs":[{"name":"to","type":"address","internalType":"address"},{"name":"amount","type":"uint256","internalType":"uint256"}],"outputs":[{"name":"","type":"bool","internalType":"bool"}],"stateMutability":"nonpayable"},{"type":"function","name":"transferFrom","inputs":[{"name":"from","type":"address","internalType":"address"},{"name":"to","type":"address","internalType":"address"},{"name":"amount","type":"uint256","internalType":"uint256"}],"outputs":[{"name":"","type":"bool","internalType":"bool"}],"stateMutability":"nonpayable"},{"type":"event","name":"Approval","inputs":[{"name":"owner","type":"address","indexed":true,"internalType":"address"},{"name":"spender","type":"address","indexed":true,"internalType":"address"},{"name":"value","type":"uint256","indexed":false,"internalType":"uint256"}],"anonymous":false},{"type":"event","name":"Transfer","inputs":[{"name":"from","type":"address","indexed":true,"internalType":"address"},{"name":"to","type":"address","indexed":true,"internalType":"address"},{"name":"value","type":"uint256","indexed":false,"internalType":"uint256"}],"anonymous":false}],"bytecode":{"object":"0x60806040523480156200001157600080fd5b50604080518082018252600c81526b4361736820666f7220436f7760a01b60208083019182528351808501909452600584526443464f524360d81b908401528151919291620000639160039162000094565b5080516200007990600490602084019062000094565b5050600580546001600160a01b031916331790555062000177565b828054620000a2906200013a565b90600052602060002090601f016020900481019282620000c6576000855562000111565b82601f10620000e157805160ff191683800117855562000111565b8280016001018555821562000111579182015b8281111562000111578251825591602001919060010190620000f4565b506200011f92915062000123565b5090565b5b808211156200011f576000815560010162000124565b600181811c908216806200014f57607f821691505b602082108114156200017157634e487b7160e01b600052602260045260246000fd5b50919050565b610be480620001876000396000f3fe608060405234801561001057600080fd5b50600436106100cf5760003560e01c806340c10f191161008c578063a457c2d711610066578063a457c2d7146101a0578063a6f9dae1146101b3578063a9059cbb146101de578063dd62ed3e146101f157600080fd5b806340c10f191461015c57806370a082311461016f57806395d89b411461019857600080fd5b806306fdde03146100d4578063095ea7b3146100f257806318160ddd1461011557806323b872dd14610127578063313ce5671461013a5780633950935114610149575b600080fd5b6100dc610204565b6040516100e99190610a02565b60405180910390f35b610105610100366004610a73565b610296565b60405190151581526020016100e9565b6002545b6040519081526020016100e9565b610105610135366004610a9d565b6102b0565b604051601281526020016100e9565b610105610157366004610a73565b6102d4565b61011961016a366004610a73565b6102f6565b61011961017d366004610ad9565b6001600160a01b031660009081526020819052604090205490565b6100dc610420565b6101056101ae366004610a73565b61042f565b6101c66101c1366004610ad9565b6104aa565b6040516001600160a01b0390911681526020016100e9565b6101056101ec366004610a73565b61057e565b6101196101ff366004610afb565b61058c565b60606003805461021390610b2e565b80601f016020809104026020016040519081016040528092919081815260200182805461023f90610b2e565b801561028c5780601f106102615761010080835404028352916020019161028c565b820191906000526020600020905b81548152906001019060200180831161026f57829003601f168201915b5050505050905090565b6000336102a48185856105b7565b60019150505b92915050565b6000336102be8582856106db565b6102c9858585610755565b506001949350505050565b6000336102a48185856102e7838361058c565b6102f19190610b7f565b6105b7565b60006001600160a01b0383166103435760405162461bcd60e51b815260206004820152600d60248201526c546f6b656e206973207a65726f60981b60448201526064015b60405180910390fd5b6005546001600160a01b031633146103935760405162461bcd60e51b815260206004820152601360248201527213db9b1e481bdddb995c8818d85b881b5a5b9d606a1b604482015260640161033a565b506001600160a01b0382166000908152602081905260409020546103b78383610923565b806103d7846001600160a01b031660009081526020819052604090205490565b6103e19190610b97565b90508181146102aa5760405162461bcd60e51b815260206004820152600b60248201526a135a5b9d0819985a5b195960aa1b604482015260640161033a565b60606004805461021390610b2e565b6000338161043d828661058c565b90508381101561049d5760405162461bcd60e51b815260206004820152602560248201527f45524332303a2064656372656173656420616c6c6f77616e63652062656c6f77604482015264207a65726f60d81b606482015260840161033a565b6102c982868684036105b7565b6005546000906001600160a01b031633146105075760405162461bcd60e51b815260206004820152601b60248201527f4f6e6c79206f776e65722063616e206368616e6765206f776e65720000000000604482015260640161033a565b6006546001600160a01b03161580159061053257506005546006546001600160a01b03908116911614155b1561055a57600654600580546001600160a01b0319166001600160a01b039092169190911790555b600680546001600160a01b0319166001600160a01b03939093169290921790915590565b6000336102a4818585610755565b6001600160a01b03918216600090815260016020908152604080832093909416825291909152205490565b6001600160a01b0383166106195760405162461bcd60e51b8152602060048201526024808201527f45524332303a20617070726f76652066726f6d20746865207a65726f206164646044820152637265737360e01b606482015260840161033a565b6001600160a01b03821661067a5760405162461bcd60e51b815260206004820152602260248201527f45524332303a20617070726f766520746f20746865207a65726f206164647265604482015261737360f01b606482015260840161033a565b6001600160a01b0383811660008181526001602090815260408083209487168084529482529182902085905590518481527f8c5be1e5ebec7d5bd14f71427d1e84f3dd0314c0f7b2291e5b200ac8c7c3b925910160405180910390a3505050565b60006106e7848461058c565b9050600019811461074f57818110156107425760405162461bcd60e51b815260206004820152601d60248201527f45524332303a20696e73756666696369656e7420616c6c6f77616e6365000000604482015260640161033a565b61074f84848484036105b7565b50505050565b6001600160a01b0383166107b95760405162461bcd60e51b815260206004820152602560248201527f45524332303a207472616e736665722066726f6d20746865207a65726f206164604482015264647265737360d81b606482015260840161033a565b6001600160a01b03821661081b5760405162461bcd60e51b815260206004820152602360248201527f45524332303a207472616e7366657220746f20746865207a65726f206164647260448201526265737360e81b606482015260840161033a565b6001600160a01b038316600090815260208190526040902054818110156108935760405162461bcd60e51b815260206004820152602660248201527f45524332303a207472616e7366657220616d6f756e7420657863656564732062604482015265616c616e636560d01b606482015260840161033a565b6001600160a01b038085166000908152602081905260408082208585039055918516815290812080548492906108ca908490610b7f565b92505081905550826001600160a01b0316846001600160a01b03167fddf252ad1be2c89b69c2b068fc378daa952ba7f163c4a11628f55a4df523b3ef8460405161091691815260200190565b60405180910390a361074f565b6001600160a01b0382166109795760405162461bcd60e51b815260206004820152601f60248201527f45524332303a206d696e7420746f20746865207a65726f206164647265737300604482015260640161033a565b806002600082825461098b9190610b7f565b90915550506001600160a01b038216600090815260208190526040812080548392906109b8908490610b7f565b90915550506040518181526001600160a01b038316906000907fddf252ad1be2c89b69c2b068fc378daa952ba7f163c4a11628f55a4df523b3ef9060200160405180910390a35050565b600060208083528351808285015260005b81811015610a2f57858101830151858201604001528201610a13565b81811115610a41576000604083870101525b50601f01601f1916929092016040019392505050565b80356001600160a01b0381168114610a6e57600080fd5b919050565b60008060408385031215610a8657600080fd5b610a8f83610a57565b946020939093013593505050565b600080600060608486031215610ab257600080fd5b610abb84610a57565b9250610ac960208501610a57565b9150604084013590509250925092565b600060208284031215610aeb57600080fd5b610af482610a57565b9392505050565b60008060408385031215610b0e57600080fd5b610b1783610a57565b9150610b2560208401610a57565b90509250929050565b600181811c90821680610b4257607f821691505b60208210811415610b6357634e487b7160e01b600052602260045260246000fd5b50919050565b634e487b7160e01b600052601160045260246000fd5b60008219821115610b9257610b92610b69565b500190565b600082821015610ba957610ba9610b69565b50039056fea26469706673582212202f295eb31b5501b9281d01f09542f5d18afca68b363c87b17a38c518134bd45264736f6c634300080b0033","linkReferences":{}},"methodIdentifiers":{"allowance(address,address)":"dd62ed3e","approve(address,uint256)":"095ea7b3","balanceOf(address)":"70a08231","changeOwner(address)":"a6f9dae1","decimals()":"313ce567","decreaseAllowance(address,uint256)":"a457c2d7","increaseAllowance(address,uint256)":"39509351","mint(address,uint256)":"40c10f19","name()":"06fdde03","symbol()":"95d89b41","totalSupply()":"18160ddd","transfer(address,uint256)":"a9059cbb","transferFrom(address,address,uint256)":"23b872dd"},"id":42}